{
  "_format": "hh-sol-artifact-1",
  "contractName": "PlantationNFT",
  "sourceName": "contracts/PlantationNFT.sol",
  "abi": [
    {
      "inputs": [],
      "stateMutability": "nonpayable",
      "type": "constructor"
    },
    {
      "inputs": [
        {
          "internalType": "address",
          "name": "sender",
          "type": "address"
        },
        {
          "internalType": "uint256",
          "name": "tokenId",
          "type": "uint256"
        },
        {
          "internalType": "address",
          "name": "owner",
          "type": "address"
        }
      ],
      "name": "ERC721IncorrectOwner",
      "type": "error"
    },
    {
      "inputs": [
        {
          "internalType": "address",
          "name": "operator",
          "type": "address"
        },
        {
          "internalType": "uint256",
          "name": "tokenId",
          "type": "uint256"
        }
      ],
      "name": "ERC721InsufficientApproval",
      "type": "error"
    },
    {
      "inputs": [
        {
          "internalType": "address",
          "name": "approver",
          "type": "address"
        }
      ],
      "name": "ERC721InvalidApprover",
      "type": "error"
    },
    {
      "inputs": [
        {
          "internalType": "address",
          "name": "operator",
          "type": "address"
        }
      ],
      "name": "ERC721InvalidOperator",
      "type": "error"
    },
    {
      "inputs": [
        {
          "internalType": "address",
          "name": "owner",
          "type": "address"
        }
      ],
      "name": "ERC721InvalidOwner",
      "type": "error"
    },
    {
      "inputs": [
        {
          "internalType": "address",
          "name": "receiver",
          "type": "address"
        }
      ],
      "name": "ERC721InvalidReceiver",
      "type": "error"
    },
    {
      "inputs": [
        {
          "internalType": "address",
          "name": "sender",
          "type": "address"
        }
      ],
      "name": "ERC721InvalidSender",
      "type": "error"
    },
    {
      "inputs": [
        {
          "internalType": "uint256",
          "name": "tokenId",
          "type": "uint256"
        }
      ],
      "name": "ERC721NonexistentToken",
      "type": "error"
    },
    {
      "inputs": [
        {
          "internalType": "address",
          "name": "owner",
          "type": "address"
        }
      ],
      "name": "OwnableInvalidOwner",
      "type": "error"
    },
    {
      "inputs": [
        {
          "internalType": "address",
          "name": "account",
          "type": "address"
        }
      ],
      "name": "OwnableUnauthorizedAccount",
      "type": "error"
    },
    {
      "anonymous": false,
      "inputs": [
        {
          "indexed": true,
          "internalType": "address",
          "name": "owner",
          "type": "address"
        },
        {
          "indexed": true,
          "internalType": "address",
          "name": "approved",
          "type": "address"
        },
        {
          "indexed": true,
          "internalType": "uint256",
          "name": "tokenId",
          "type": "uint256"
        }
      ],
      "name": "Approval",
      "type": "event"
    },
    {
      "anonymous": false,
      "inputs": [
        {
          "indexed": true,
          "internalType": "address",
          "name": "owner",
          "type": "address"
        },
        {
          "indexed": true,
          "internalType": "address",
          "name": "operator",
          "type": "address"
        },
        {
          "indexed": false,
          "internalType": "bool",
          "name": "approved",
          "type": "bool"
        }
      ],
      "name": "ApprovalForAll",
      "type": "event"
    },
    {
      "anonymous": false,
      "inputs": [
        {
          "indexed": false,
          "internalType": "uint256",
          "name": "_fromTokenId",
          "type": "uint256"
        },
        {
          "indexed": false,
          "internalType": "uint256",
          "name": "_toTokenId",
          "type": "uint256"
        }
      ],
      "name": "BatchMetadataUpdate",
      "type": "event"
    },
    {
      "anonymous": false,
      "inputs": [
        {
          "indexed": false,
          "internalType": "uint256",
          "name": "_tokenId",
          "type": "uint256"
        }
      ],
      "name": "MetadataUpdate",
      "type": "event"
    },
    {
      "anonymous": false,
      "inputs": [
        {
          "indexed": true,
          "internalType": "address",
          "name": "previousOwner",
          "type": "address"
        },
        {
          "indexed": true,
          "internalType": "address",
          "name": "newOwner",
          "type": "address"
        }
      ],
      "name": "OwnershipTransferred",
      "type": "event"
    },
    {
      "anonymous": false,
      "inputs": [
        {
          "indexed": true,
          "internalType": "uint256",
          "name": "tokenId",
          "type": "uint256"
        },
        {
          "indexed": false,
          "internalType": "uint256",
          "name": "treeCount",
          "type": "uint256"
        },
        {
          "indexed": false,
          "internalType": "uint256",
          "name": "carbonOffsetTons",
          "type": "uint256"
        }
      ],
      "name": "PlantationDataUpdated",
      "type": "event"
    },
    {
      "anonymous": false,
      "inputs": [
        {
          "indexed": true,
          "internalType": "uint256",
          "name": "tokenId",
          "type": "uint256"
        },
        {
          "indexed": true,
          "internalType": "address",
          "name": "owner",
          "type": "address"
        },
        {
          "indexed": false,
          "internalType": "string",
          "name": "location",
          "type": "string"
        },
        {
          "indexed": false,
          "internalType": "uint256",
          "name": "areaHectares",
          "type": "uint256"
        },
        {
          "indexed": false,
          "internalType": "string",
          "name": "stage",
          "type": "string"
        },
        {
          "indexed": false,
          "internalType": "uint256",
          "name": "treeCount",
          "type": "uint256"
        }
      ],
      "name": "PlantationMinted",
      "type": "event"
    },
    {
      "anonymous": false,
      "inputs": [
        {
          "indexed": true,
          "internalType": "uint256",
          "name": "tokenId",
          "type": "uint256"
        },
        {
          "indexed": false,
          "internalType": "string",
          "name": "oldStage",
          "type": "string"
        },
        {
          "indexed": false,
          "internalType": "string",
          "name": "newStage",
          "type": "string"
        }
      ],
      "name": "PlantationStageUpdated",
      "type": "event"
    },
    {
      "anonymous": false,
      "inputs": [
        {
          "indexed": true,
          "internalType": "address",
          "name": "from",
          "type": "address"
        },
        {
          "indexed": true,
          "internalType": "address",
          "name": "to",
          "type": "address"
        },
        {
          "indexed": true,
          "internalType": "uint256",
          "name": "tokenId",
          "type": "uint256"
        }
      ],
      "name": "Transfer",
      "type": "event"
    },
    {
      "inputs": [
        {
          "internalType": "address",
          "name": "to",
          "type": "address"
        },
        {
          "internalType": "uint256",
          "name": "tokenId",
          "type": "uint256"
        }
      ],
      "name": "approve",
      "outputs": [],
      "stateMutability": "nonpayable",
      "type": "function"
    },
    {
      "inputs": [
        {
          "internalType": "address",
          "name": "owner",
          "type": "address"
        }
      ],
      "name": "balanceOf",
      "outputs": [
        {
          "internalType": "uint256",
          "name": "",
          "type": "uint256"
        }
      ],
      "stateMutability": "view",
      "type": "function"
    },
    {
      "inputs": [
        {
          "internalType": "address",
          "name": "owner",
          "type": "address"
        }
      ],
      "name": "balanceOfPlantations",
      "outputs": [
        {
          "internalType": "uint256",
          "name": "",
          "type": "uint256"
        }
      ],
      "stateMutability": "view",
      "type": "function"
    },
    {
      "inputs": [
        {
          "internalType": "uint256",
          "name": "tokenId",
          "type": "uint256"
        }
      ],
      "name": "getApproved",
      "outputs": [
        {
          "internalType": "address",
          "name": "",
          "type": "address"
        }
      ],
      "stateMutability": "view",
      "type": "function"
    },
    {
      "inputs": [
        {
          "internalType": "uint256",
          "name": "tokenId",
          "type": "uint256"
        }
      ],
      "name": "getPlantationData",
      "outputs": [
        {
          "components": [
            {
              "internalType": "string",
              "name": "location",
              "type": "string"
            },
            {
              "internalType": "uint256",
              "name": "areaHectares",
              "type": "uint256"
            },
            {
              "internalType": "string",
              "name": "stage",
              "type": "string"
            },
            {
              "internalType": "uint256",
              "name": "treeCount",
              "type": "uint256"
            },
            {
              "internalType": "uint256",
              "name": "carbonOffsetTons",
              "type": "uint256"
            },
            {
              "internalType": "uint256",
              "name": "mintDate",
              "type": "uint256"
            },
            {
              "internalType": "address",
              "name": "minter",
              "type": "address"
            }
          ],
          "internalType": "struct PlantationNFT.PlantationData",
          "name": "",
          "type": "tuple"
        }
      ],
      "stateMutability": "view",
      "type": "function"
    },
    {
      "inputs": [
        {
          "internalType": "address",
          "name": "owner",
          "type": "address"
        },
        {
          "internalType": "address",
          "name": "operator",
          "type": "address"
        }
      ],
      "name": "isApprovedForAll",
      "outputs": [
        {
          "internalType": "bool",
          "name": "",
          "type": "bool"
        }
      ],
      "stateMutability": "view",
      "type": "function"
    },
    {
      "inputs": [
        {
          "internalType": "address",
          "name": "to",
          "type": "address"
        },
        {
          "internalType": "string",
          "name": "tokenURI",
          "type": "string"
        },
        {
          "internalType": "string",
          "name": "location",
          "type": "string"
        },
        {
          "internalType": "uint256",
          "name": "areaHectares",
          "type": "uint256"
        },
        {
          "internalType": "string",
          "name": "stage",
          "type": "string"
        },
        {
          "internalType": "uint256",
          "name": "treeCount",
          "type": "uint256"
        },
        {
          "internalType": "uint256",
          "name": "carbonOffsetTons",
          "type": "uint256"
        }
      ],
      "name": "mintPlantation",
      "outputs": [
        {
          "internalType": "uint256",
          "name": "",
          "type": "uint256"
        }
      ],
      "stateMutability": "nonpayable",
      "type": "function"
    },
    {
      "inputs": [],
      "name": "name",
      "outputs": [
        {
          "internalType": "string",
          "name": "",
          "type": "string"
        }
      ],
      "stateMutability": "view",
      "type": "function"
    },
    {
      "inputs": [],
      "name": "owner",
      "outputs": [
        {
          "internalType": "address",
          "name": "",
          "type": "address"
        }
      ],
      "stateMutability": "view",
      "type": "function"
    },
    {
      "inputs": [
        {
          "internalType": "uint256",
          "name": "tokenId",
          "type": "uint256"
        }
      ],
      "name": "ownerOf",
      "outputs": [
        {
          "internalType": "address",
          "name": "",
          "type": "address"
        }
      ],
      "stateMutability": "view",
      "type": "function"
    },
    {
      "inputs": [
        {
          "internalType": "address",
          "name": "",
          "type": "address"
        }
      ],
      "name": "plantationCount",
      "outputs": [
        {
          "internalType": "uint256",
          "name": "",
          "type": "uint256"
        }
      ],
      "stateMutability": "view",
      "type": "function"
    },
    {
      "inputs": [
        {
          "internalType": "uint256",
          "name": "",
          "type": "uint256"
        }
      ],
      "name": "plantations",
      "outputs": [
        {
          "internalType": "string",
          "name": "location",
          "type": "string"
        },
        {
          "internalType": "uint256",
          "name": "areaHectares",
          "type": "uint256"
        },
        {
          "internalType": "string",
          "name": "stage",
          "type": "string"
        },
        {
          "internalType": "uint256",
          "name": "treeCount",
          "type": "uint256"
        },
        {
          "internalType": "uint256",
          "name": "carbonOffsetTons",
          "type": "uint256"
        },
        {
          "internalType": "uint256",
          "name": "mintDate",
          "type": "uint256"
        },
        {
          "internalType": "address",
          "name": "minter",
          "type": "address"
        }
      ],
      "stateMutability": "view",
      "type": "function"
    },
    {
      "inputs": [],
      "name": "renounceOwnership",
      "outputs": [],
      "stateMutability": "nonpayable",
      "type": "function"
    },
    {
      "inputs": [
        {
          "internalType": "address",
          "name": "from",
          "type": "address"
        },
        {
          "internalType": "address",
          "name": "to",
          "type": "address"
        },
        {
          "internalType": "uint256",
          "name": "tokenId",
          "type": "uint256"
        }
      ],
      "name": "safeTransferFrom",
      "outputs": [],
      "stateMutability": "nonpayable",
      "type": "function"
    },
    {
      "inputs": [
        {
          "internalType": "address",
          "name": "from",
          "type": "address"
        },
        {
          "internalType": "address",
          "name": "to",
          "type": "address"
        },
        {
          "internalType": "uint256",
          "name": "tokenId",
          "type": "uint256"
        },
        {
          "internalType": "bytes",
          "name": "data",
          "type": "bytes"
        }
      ],
      "name": "safeTransferFrom",
      "outputs": [],
      "stateMutability": "nonpayable",
      "type": "function"
    },
    {
      "inputs": [
        {
          "internalType": "address",
          "name": "operator",
          "type": "address"
        },
        {
          "internalType": "bool",
          "name": "approved",
          "type": "bool"
        }
      ],
      "name": "setApprovalForAll",
      "outputs": [],
      "stateMutability": "nonpayable",
      "type": "function"
    },
    {
      "inputs": [
        {
          "internalType": "bytes4",
          "name": "interfaceId",
          "type": "bytes4"
        }
      ],
      "name": "supportsInterface",
      "outputs": [
        {
          "internalType": "bool",
          "name": "",
          "type": "bool"
        }
      ],
      "stateMutability": "view",
      "type": "function"
    },
    {
      "inputs": [],
      "name": "symbol",
      "outputs": [
        {
          "internalType": "string",
          "name": "",
          "type": "string"
        }
      ],
      "stateMutability": "view",
      "type": "function"
    },
    {
      "inputs": [
        {
          "internalType": "uint256",
          "name": "tokenId",
          "type": "uint256"
        }
      ],
      "name": "tokenURI",
      "outputs": [
        {
          "internalType": "string",
          "name": "",
          "type": "string"
        }
      ],
      "stateMutability": "view",
      "type": "function"
    },
    {
      "inputs": [],
      "name": "totalSupply",
      "outputs": [
        {
          "internalType": "uint256",
          "name": "",
          "type": "uint256"
        }
      ],
      "stateMutability": "view",
      "type": "function"
    },
    {
      "inputs": [
        {
          "internalType": "address",
          "name": "from",
          "type": "address"
        },
        {
          "internalType": "address",
          "name": "to",
          "type": "address"
        },
        {
          "internalType": "uint256",
          "name": "tokenId",
          "type": "uint256"
        }
      ],
      "name": "transferFrom",
      "outputs": [],
      "stateMutability": "nonpayable",
      "type": "function"
    },
    {
      "inputs": [
        {
          "internalType": "address",
          "name": "newOwner",
          "type": "address"
        }
      ],
      "name": "transferOwnership",
      "outputs": [],
      "stateMutability": "nonpayable",
      "type": "function"
    },
    {
      "inputs": [
        {
          "internalType": "uint256",
          "name": "tokenId",
          "type": "uint256"
        },
        {
          "internalType": "uint256",
          "name": "treeCount",
          "type": "uint256"
        },
        {
          "internalType": "uint256",
          "name": "carbonOffsetTons",
          "type": "uint256"
        }
      ],
      "name": "updatePlantationData",
      "outputs": [],
      "stateMutability": "nonpayable",
      "type": "function"
    },
    {
      "inputs": [
        {
          "internalType": "uint256",
          "name": "tokenId",
          "type": "uint256"
        },
        {
          "internalType": "string",
          "name": "newStage",
          "type": "string"
        }
      ],
      "name": "updateStage",
      "outputs": [],
      "stateMutability": "nonpayable",
      "type": "function"
    }
  ],
  "bytecode": "0x60806040523480156200001157600080fd5b50336040518060400160405280601481526020017f436f636f6120506c616e746174696f6e204e465400000000000000000000000081525060405180604001604052806005815260200164434f434f4160d81b8152508160009081620000789190620001c4565b506001620000878282620001c4565b5050506001600160a01b038116620000b957604051631e4fbdf760e01b81526000600482015260240160405180910390fd5b620000c481620000cb565b5062000290565b600780546001600160a01b038381166001600160a01b0319831681179093556040519116919082907f8be0079c531659141344cd1fd0a4f28419497f9722a3daafe3b4186f6b6457e090600090a35050565b634e487b7160e01b600052604160045260246000fd5b600181811c908216806200014857607f821691505b6020821081036200016957634e487b7160e01b600052602260045260246000fd5b50919050565b601f821115620001bf576000816000526020600020601f850160051c810160208610156200019a5750805b601f850160051c820191505b81811015620001bb57828155600101620001a6565b5050505b505050565b81516001600160401b03811115620001e057620001e06200011d565b620001f881620001f1845462000133565b846200016f565b602080601f831160018114620002305760008415620002175750858301515b600019600386901b1c1916600185901b178555620001bb565b600085815260208120601f198616915b82811015620002615788860151825594840194600190910190840162000240565b5085821015620002805787850151600019600388901b60f8161c191681555b5050505050600190811b01905550565b611f1380620002a06000396000f3fe608060405234801561001057600080fd5b50600436106101585760003560e01c80638da5cb5b116100c3578063c87b56dd1161007c578063c87b56dd146102ee578063cf038b4814610301578063d305c02514610321578063e985e9c514610347578063efa1fa531461035a578063f2fde38b1461036d57600080fd5b80638da5cb5b1461027c57806395d89b411461028d578063a22cb46514610295578063a98fa646146102a8578063b88d4fde146102c8578063c3b0c52b146102db57600080fd5b806342842e0e1161011557806342842e0e146101ff5780634f4e116b146102125780635b0b37ee146102255780636352211e1461024e57806370a0823114610261578063715018a61461027457600080fd5b806301ffc9a71461015d57806306fdde0314610185578063081812fc1461019a578063095ea7b3146101c557806318160ddd146101da57806323b872dd146101ec575b600080fd5b61017061016b366004611761565b610380565b60405190151581526020015b60405180910390f35b61018d6103ab565b60405161017c91906117ce565b6101ad6101a83660046117e1565b61043d565b6040516001600160a01b03909116815260200161017c565b6101d86101d3366004611816565b610466565b005b6008545b60405190815260200161017c565b6101d86101fa366004611840565b610475565b6101d861020d366004611840565b610505565b6101d8610220366004611928565b610525565b6101de61023336600461196f565b6001600160a01b03166000908152600a602052604090205490565b6101ad61025c3660046117e1565b6106ae565b6101de61026f36600461196f565b6106b9565b6101d8610701565b6007546001600160a01b03166101ad565b61018d610715565b6101d86102a336600461198a565b610724565b6102bb6102b63660046117e1565b61072f565b60405161017c91906119c6565b6101d86102d6366004611a47565b61092a565b6101de6102e9366004611ac3565b610942565b61018d6102fc3660046117e1565b610a97565b6101de61030f36600461196f565b600a6020526000908152604090205481565b61033461032f3660046117e1565b610ba8565b60405161017c9796959493929190611b79565b610170610355366004611bd4565b610cfc565b6101d8610368366004611c07565b610d2a565b6101d861037b36600461196f565b610e0c565b60006001600160e01b03198216632483248360e11b14806103a557506103a582610e4a565b92915050565b6060600080546103ba90611c33565b80601f01602080910402602001604051908101604052809291908181526020018280546103e690611c33565b80156104335780601f1061040857610100808354040283529160200191610433565b820191906000526020600020905b81548152906001019060200180831161041657829003601f168201915b5050505050905090565b600061044882610e9a565b506000828152600460205260409020546001600160a01b03166103a5565b610471828233610ed3565b5050565b6001600160a01b0382166104a457604051633250574960e11b8152600060048201526024015b60405180910390fd5b60006104b1838333610ee0565b9050836001600160a01b0316816001600160a01b0316146104ff576040516364283d7b60e01b81526001600160a01b038086166004830152602482018490528216604482015260640161049b565b50505050565b6105208383836040518060200160405280600081525061092a565b505050565b6000828152600260205260409020546001600160a01b0316331461057b5760405162461bcd60e51b815260206004820152600d60248201526c2737ba103a34329037bbb732b960991b604482015260640161049b565b6000828152600960205260408120805461059490611c33565b9050116105b35760405162461bcd60e51b815260040161049b90611c6d565b600082815260096020526040812060020180546105cf90611c33565b80601f01602080910402602001604051908101604052809291908181526020018280546105fb90611c33565b80156106485780601f1061061d57610100808354040283529160200191610648565b820191906000526020600020905b81548152906001019060200180831161062b57829003601f168201915b5050506000868152600960205260409020929350506002909101905061066e8382611cec565b50827f76e30892746525dc1c3f14e1a337235670ffef2533f11f73721d11a28a03fc4682846040516106a1929190611dac565b60405180910390a2505050565b60006103a582610e9a565b60006001600160a01b0382166106e5576040516322718ad960e21b81526000600482015260240161049b565b506001600160a01b031660009081526003602052604090205490565b610709610f75565b6107136000610fa2565b565b6060600180546103ba90611c33565b610471338383610ff4565b6107786040518060e0016040528060608152602001600081526020016060815260200160008152602001600081526020016000815260200160006001600160a01b031681525090565b6000828152600260205260409020546001600160a01b03166107ac5760405162461bcd60e51b815260040161049b90611c6d565b60008281526009602052604090819020815160e081019092528054829082906107d490611c33565b80601f016020809104026020016040519081016040528092919081815260200182805461080090611c33565b801561084d5780601f106108225761010080835404028352916020019161084d565b820191906000526020600020905b81548152906001019060200180831161083057829003601f168201915b505050505081526020016001820154815260200160028201805461087090611c33565b80601f016020809104026020016040519081016040528092919081815260200182805461089c90611c33565b80156108e95780601f106108be576101008083540402835291602001916108e9565b820191906000526020600020905b8154815290600101906020018083116108cc57829003601f168201915b50505091835250506003820154602082015260048201546040820152600582015460608201526006909101546001600160a01b031660809091015292915050565b610935848484610475565b6104ff3385858585611093565b6008805460009181908361095583611de7565b919050555061096489826111be565b61096e81896111d8565b6040805160e081018252888152602080820189905281830188905260608201879052608082018690524260a08301523360c08301526000848152600990915291909120815181906109bf9082611cec565b5060208201516001820155604082015160028201906109de9082611cec565b50606082015160038201556080820151600482015560a0820151600582015560c090910151600690910180546001600160a01b0319166001600160a01b0392831617905589166000908152600a60205260408120805491610a3e83611de7565b9190505550886001600160a01b0316817f01b3437f2042e18768f0670803a6ffb29e006852b1529573f61476e6b2458a3589898989604051610a839493929190611e00565b60405180910390a398975050505050505050565b6060610aa282610e9a565b5060008281526006602052604081208054610abc90611c33565b80601f0160208091040260200160405190810160405280929190818152602001828054610ae890611c33565b8015610b355780601f10610b0a57610100808354040283529160200191610b35565b820191906000526020600020905b815481529060010190602001808311610b1857829003601f168201915b505050505090506000610b5360408051602081019091526000815290565b90508051600003610b65575092915050565b815115610b97578082604051602001610b7f929190611e3d565b60405160208183030381529060405292505050919050565b610ba084611228565b949350505050565b600960205260009081526040902080548190610bc390611c33565b80601f0160208091040260200160405190810160405280929190818152602001828054610bef90611c33565b8015610c3c5780601f10610c1157610100808354040283529160200191610c3c565b820191906000526020600020905b815481529060010190602001808311610c1f57829003601f168201915b505050505090806001015490806002018054610c5790611c33565b80601f0160208091040260200160405190810160405280929190818152602001828054610c8390611c33565b8015610cd05780601f10610ca557610100808354040283529160200191610cd0565b820191906000526020600020905b815481529060010190602001808311610cb357829003601f168201915b50505050600383015460048401546005850154600690950154939491939092506001600160a01b031687565b6001600160a01b03918216600090815260056020908152604080832093909416825291909152205460ff1690565b6000838152600260205260409020546001600160a01b03163314610d805760405162461bcd60e51b815260206004820152600d60248201526c2737ba103a34329037bbb732b960991b604482015260640161049b565b60008381526009602052604081208054610d9990611c33565b905011610db85760405162461bcd60e51b815260040161049b90611c6d565b60008381526009602090815260409182902060038101859055600401839055815184815290810183905284917f435372c7f09adac52dacf6c838c677fe4d0071ff7b030875e23203baa5bacaad91016106a1565b610e14610f75565b6001600160a01b038116610e3e57604051631e4fbdf760e01b81526000600482015260240161049b565b610e4781610fa2565b50565b60006001600160e01b031982166380ac58cd60e01b1480610e7b57506001600160e01b03198216635b5e139f60e01b145b806103a557506301ffc9a760e01b6001600160e01b03198316146103a5565b6000818152600260205260408120546001600160a01b0316806103a557604051637e27328960e01b81526004810184905260240161049b565b610520838383600161129d565b6000828152600260205260408120546001600160a01b03168015610f28576001600160a01b0381166000908152600a60205260408120805491610f2283611e6c565b91905055505b6001600160a01b03851615610f61576001600160a01b0385166000908152600a60205260408120805491610f5b83611de7565b91905055505b610f6c8585856113a3565b95945050505050565b6007546001600160a01b031633146107135760405163118cdaa760e01b815233600482015260240161049b565b600780546001600160a01b038381166001600160a01b0319831681179093556040519116919082907f8be0079c531659141344cd1fd0a4f28419497f9722a3daafe3b4186f6b6457e090600090a35050565b6001600160a01b03821661102657604051630b61174360e31b81526001600160a01b038316600482015260240161049b565b6001600160a01b03838116600081815260056020908152604080832094871680845294825291829020805460ff191686151590811790915591519182527f17307eab39ab6107e8899845ad3d59bd9653f200f220920489ca2b5937696c31910160405180910390a3505050565b6001600160a01b0383163b156111b757604051630a85bd0160e11b81526001600160a01b0384169063150b7a02906110d5908890889087908790600401611e83565b6020604051808303816000875af1925050508015611110575060408051601f3d908101601f1916820190925261110d91810190611ec0565b60015b611179573d80801561113e576040519150601f19603f3d011682016040523d82523d6000602084013e611143565b606091505b50805160000361117157604051633250574960e11b81526001600160a01b038516600482015260240161049b565b805160208201fd5b6001600160e01b03198116630a85bd0160e11b146111b557604051633250574960e11b81526001600160a01b038516600482015260240161049b565b505b5050505050565b61047182826040518060200160405280600081525061149c565b60008281526006602052604090206111f08282611cec565b506040518281527ff8e1a15aba9398e019f0b49df1a4fde98ee17ae345cb5f6b5e2c27f5033e8ce79060200160405180910390a15050565b606061123382610e9a565b50600061124b60408051602081019091526000815290565b9050600081511161126b5760405180602001604052806000815250611296565b80611275846114b4565b604051602001611286929190611e3d565b6040516020818303038152906040525b9392505050565b80806112b157506001600160a01b03821615155b156113735760006112c184610e9a565b90506001600160a01b038316158015906112ed5750826001600160a01b0316816001600160a01b031614155b801561130057506112fe8184610cfc565b155b156113295760405163a9fbf51f60e01b81526001600160a01b038416600482015260240161049b565b81156113715783856001600160a01b0316826001600160a01b03167f8c5be1e5ebec7d5bd14f71427d1e84f3dd0314c0f7b2291e5b200ac8c7c3b92560405160405180910390a45b505b5050600090815260046020526040902080546001600160a01b0319166001600160a01b0392909216919091179055565b6000828152600260205260408120546001600160a01b03908116908316156113d0576113d0818486611547565b6001600160a01b0381161561140e576113ed60008560008061129d565b6001600160a01b038116600090815260036020526040902080546000190190555b6001600160a01b0385161561143d576001600160a01b0385166000908152600360205260409020805460010190555b60008481526002602052604080822080546001600160a01b0319166001600160a01b0389811691821790925591518793918516917fddf252ad1be2c89b69c2b068fc378daa952ba7f163c4a11628f55a4df523b3ef91a4949350505050565b6114a683836115ab565b610520336000858585611093565b606060006114c183611610565b600101905060008167ffffffffffffffff8111156114e1576114e161187c565b6040519080825280601f01601f19166020018201604052801561150b576020820181803683370190505b5090508181016020015b600019016f181899199a1a9b1b9c1cb0b131b232b360811b600a86061a8153600a850494508461151557509392505050565b6115528383836116e8565b610520576001600160a01b03831661158057604051637e27328960e01b81526004810182905260240161049b565b60405163177e802f60e01b81526001600160a01b03831660048201526024810182905260440161049b565b6001600160a01b0382166115d557604051633250574960e11b81526000600482015260240161049b565b60006115e383836000610ee0565b90506001600160a01b03811615610520576040516339e3563760e11b81526000600482015260240161049b565b60008072184f03e93ff9f4daa797ed6e38ed64bf6a1f0160401b831061164f5772184f03e93ff9f4daa797ed6e38ed64bf6a1f0160401b830492506040015b6d04ee2d6d415b85acef8100000000831061167b576d04ee2d6d415b85acef8100000000830492506020015b662386f26fc10000831061169957662386f26fc10000830492506010015b6305f5e10083106116b1576305f5e100830492506008015b61271083106116c557612710830492506004015b606483106116d7576064830492506002015b600a83106103a55760010192915050565b60006001600160a01b03831615801590610ba05750826001600160a01b0316846001600160a01b0316148061172257506117228484610cfc565b80610ba05750506000908152600460205260409020546001600160a01b03908116911614919050565b6001600160e01b031981168114610e4757600080fd5b60006020828403121561177357600080fd5b81356112968161174b565b60005b83811015611799578181015183820152602001611781565b50506000910152565b600081518084526117ba81602086016020860161177e565b601f01601f19169290920160200192915050565b60208152600061129660208301846117a2565b6000602082840312156117f357600080fd5b5035919050565b80356001600160a01b038116811461181157600080fd5b919050565b6000806040838503121561182957600080fd5b611832836117fa565b946020939093013593505050565b60008060006060848603121561185557600080fd5b61185e846117fa565b925061186c602085016117fa565b9150604084013590509250925092565b634e487b7160e01b600052604160045260246000fd5b600067ffffffffffffffff808411156118ad576118ad61187c565b604051601f8501601f19908116603f011681019082821181831017156118d5576118d561187c565b816040528093508581528686860111156118ee57600080fd5b858560208301376000602087830101525050509392505050565b600082601f83011261191957600080fd5b61129683833560208501611892565b6000806040838503121561193b57600080fd5b82359150602083013567ffffffffffffffff81111561195957600080fd5b61196585828601611908565b9150509250929050565b60006020828403121561198157600080fd5b611296826117fa565b6000806040838503121561199d57600080fd5b6119a6836117fa565b9150602083013580151581146119bb57600080fd5b809150509250929050565b602081526000825160e060208401526119e36101008401826117a2565b9050602084015160408401526040840151601f19848303016060850152611a0a82826117a2565b91505060608401516080840152608084015160a084015260a084015160c084015260018060a01b0360c08501511660e08401528091505092915050565b60008060008060808587031215611a5d57600080fd5b611a66856117fa565b9350611a74602086016117fa565b925060408501359150606085013567ffffffffffffffff811115611a9757600080fd5b8501601f81018713611aa857600080fd5b611ab787823560208401611892565b91505092959194509250565b600080600080600080600060e0888a031215611ade57600080fd5b611ae7886117fa565b9650602088013567ffffffffffffffff80821115611b0457600080fd5b611b108b838c01611908565b975060408a0135915080821115611b2657600080fd5b611b328b838c01611908565b965060608a0135955060808a0135915080821115611b4f57600080fd5b50611b5c8a828b01611908565b93505060a0880135915060c0880135905092959891949750929550565b60e081526000611b8c60e083018a6117a2565b8860208401528281036040840152611ba481896117a2565b60608401979097525050608081019390935260a08301919091526001600160a01b031660c0909101529392505050565b60008060408385031215611be757600080fd5b611bf0836117fa565b9150611bfe602084016117fa565b90509250929050565b600080600060608486031215611c1c57600080fd5b505081359360208301359350604090920135919050565b600181811c90821680611c4757607f821691505b602082108103611c6757634e487b7160e01b600052602260045260246000fd5b50919050565b60208082526019908201527f506c616e746174696f6e20646f6573206e6f7420657869737400000000000000604082015260600190565b601f821115610520576000816000526020600020601f850160051c81016020861015611ccd5750805b601f850160051c820191505b818110156111b557828155600101611cd9565b815167ffffffffffffffff811115611d0657611d0661187c565b611d1a81611d148454611c33565b84611ca4565b602080601f831160018114611d4f5760008415611d375750858301515b600019600386901b1c1916600185901b1785556111b5565b600085815260208120601f198616915b82811015611d7e57888601518255948401946001909101908401611d5f565b5085821015611d9c5787850151600019600388901b60f8161c191681555b5050505050600190811b01905550565b604081526000611dbf60408301856117a2565b8281036020840152610f6c81856117a2565b634e487b7160e01b600052601160045260246000fd5b600060018201611df957611df9611dd1565b5060010190565b608081526000611e1360808301876117a2565b8560208401528281036040840152611e2b81866117a2565b91505082606083015295945050505050565b60008351611e4f81846020880161177e565b835190830190611e6381836020880161177e565b01949350505050565b600081611e7b57611e7b611dd1565b506000190190565b6001600160a01b0385811682528416602082015260408101839052608060608201819052600090611eb6908301846117a2565b9695505050505050565b600060208284031215611ed257600080fd5b81516112968161174b56fea264697066735822122034381654259590be5ba9067eb69351e4cbb8d30b5235e2f0f852c39fcd832d2d64736f6c63430008180033",
  "linkReferences": {},
  "deployedLinkReferences": {}
}